{
  "_format": "hh-sol-artifact-1",
  "contractName": "NFTMarketplace",
  "sourceName": "contracts/NFTMarketplace.sol",
  "abi": [
    {
      "inputs": [],
      "stateMutability": "nonpayable",
      "type": "constructor"
    },
    {
      "anonymous": false,
      "inputs": [
        {
          "indexed": true,
          "internalType": "address",
          "name": "owner",
          "type": "address"
        },
        {
          "indexed": true,
          "internalType": "address",
          "name": "approved",
          "type": "address"
        },
        {
          "indexed": true,
          "internalType": "uint256",
          "name": "tokenId",
          "type": "uint256"
        }
      ],
      "name": "Approval",
      "type": "event"
    },
    {
      "anonymous": false,
      "inputs": [
        {
          "indexed": true,
          "internalType": "address",
          "name": "owner",
          "type": "address"
        },
        {
          "indexed": true,
          "internalType": "address",
          "name": "operator",
          "type": "address"
        },
        {
          "indexed": false,
          "internalType": "bool",
          "name": "approved",
          "type": "bool"
        }
      ],
      "name": "ApprovalForAll",
      "type": "event"
    },
    {
      "anonymous": false,
      "inputs": [
        {
          "indexed": true,
          "internalType": "uint256",
          "name": "tokenId",
          "type": "uint256"
        },
        {
          "indexed": false,
          "internalType": "address",
          "name": "seller",
          "type": "address"
        },
        {
          "indexed": false,
          "internalType": "address",
          "name": "owner",
          "type": "address"
        },
        {
          "indexed": false,
          "internalType": "uint256",
          "name": "price",
          "type": "uint256"
        },
        {
          "indexed": false,
          "internalType": "bool",
          "name": "sold",
          "type": "bool"
        }
      ],
      "name": "MarketItemCreated",
      "type": "event"
    },
    {
      "anonymous": false,
      "inputs": [
        {
          "indexed": true,
          "internalType": "address",
          "name": "from",
          "type": "address"
        },
        {
          "indexed": true,
          "internalType": "address",
          "name": "to",
          "type": "address"
        },
        {
          "indexed": true,
          "internalType": "uint256",
          "name": "tokenId",
          "type": "uint256"
        }
      ],
      "name": "Transfer",
      "type": "event"
    },
    {
      "inputs": [
        {
          "internalType": "address",
          "name": "to",
          "type": "address"
        },
        {
          "internalType": "uint256",
          "name": "tokenId",
          "type": "uint256"
        }
      ],
      "name": "approve",
      "outputs": [],
      "stateMutability": "nonpayable",
      "type": "function"
    },
    {
      "inputs": [
        {
          "internalType": "address",
          "name": "owner",
          "type": "address"
        }
      ],
      "name": "balanceOf",
      "outputs": [
        {
          "internalType": "uint256",
          "name": "",
          "type": "uint256"
        }
      ],
      "stateMutability": "view",
      "type": "function"
    },
    {
      "inputs": [
        {
          "internalType": "bytes",
          "name": "",
          "type": "bytes"
        }
      ],
      "name": "checkUpkeep",
      "outputs": [
        {
          "internalType": "bool",
          "name": "needsUpkeep",
          "type": "bool"
        },
        {
          "internalType": "bytes",
          "name": "",
          "type": "bytes"
        }
      ],
      "stateMutability": "nonpayable",
      "type": "function"
    },
    {
      "inputs": [
        {
          "internalType": "uint256",
          "name": "tokenId",
          "type": "uint256"
        }
      ],
      "name": "createMarketSale",
      "outputs": [],
      "stateMutability": "payable",
      "type": "function"
    },
    {
      "inputs": [
        {
          "internalType": "string",
          "name": "tokenURI",
          "type": "string"
        },
        {
          "internalType": "uint256",
          "name": "price",
          "type": "uint256"
        }
      ],
      "name": "createToken",
      "outputs": [
        {
          "internalType": "uint256",
          "name": "",
          "type": "uint256"
        }
      ],
      "stateMutability": "payable",
      "type": "function"
    },
    {
      "inputs": [],
      "name": "currentDate",
      "outputs": [
        {
          "internalType": "uint256",
          "name": "",
          "type": "uint256"
        }
      ],
      "stateMutability": "view",
      "type": "function"
    },
    {
      "inputs": [],
      "name": "expireDate",
      "outputs": [
        {
          "internalType": "uint256",
          "name": "",
          "type": "uint256"
        }
      ],
      "stateMutability": "view",
      "type": "function"
    },
    {
      "inputs": [],
      "name": "fetchItemsListed",
      "outputs": [
        {
          "components": [
            {
              "internalType": "uint256",
              "name": "tokenId",
              "type": "uint256"
            },
            {
              "internalType": "address payable",
              "name": "seller",
              "type": "address"
            },
            {
              "internalType": "address payable",
              "name": "owner",
              "type": "address"
            },
            {
              "internalType": "uint256",
              "name": "price",
              "type": "uint256"
            },
            {
              "internalType": "bool",
              "name": "sold",
              "type": "bool"
            }
          ],
          "internalType": "struct NFTMarketplace.MarketItem[]",
          "name": "",
          "type": "tuple[]"
        }
      ],
      "stateMutability": "view",
      "type": "function"
    },
    {
      "inputs": [],
      "name": "fetchMarketItems",
      "outputs": [
        {
          "components": [
            {
              "internalType": "uint256",
              "name": "tokenId",
              "type": "uint256"
            },
            {
              "internalType": "address payable",
              "name": "seller",
              "type": "address"
            },
            {
              "internalType": "address payable",
              "name": "owner",
              "type": "address"
            },
            {
              "internalType": "uint256",
              "name": "price",
              "type": "uint256"
            },
            {
              "internalType": "bool",
              "name": "sold",
              "type": "bool"
            }
          ],
          "internalType": "struct NFTMarketplace.MarketItem[]",
          "name": "",
          "type": "tuple[]"
        }
      ],
      "stateMutability": "view",
      "type": "function"
    },
    {
      "inputs": [],
      "name": "fetchMyNFTs",
      "outputs": [
        {
          "components": [
            {
              "internalType": "uint256",
              "name": "tokenId",
              "type": "uint256"
            },
            {
              "internalType": "address payable",
              "name": "seller",
              "type": "address"
            },
            {
              "internalType": "address payable",
              "name": "owner",
              "type": "address"
            },
            {
              "internalType": "uint256",
              "name": "price",
              "type": "uint256"
            },
            {
              "internalType": "bool",
              "name": "sold",
              "type": "bool"
            }
          ],
          "internalType": "struct NFTMarketplace.MarketItem[]",
          "name": "",
          "type": "tuple[]"
        }
      ],
      "stateMutability": "view",
      "type": "function"
    },
    {
      "inputs": [
        {
          "internalType": "uint256",
          "name": "tokenId",
          "type": "uint256"
        }
      ],
      "name": "getApproved",
      "outputs": [
        {
          "internalType": "address",
          "name": "",
          "type": "address"
        }
      ],
      "stateMutability": "view",
      "type": "function"
    },
    {
      "inputs": [],
      "name": "getListingPrice",
      "outputs": [
        {
          "internalType": "uint256",
          "name": "",
          "type": "uint256"
        }
      ],
      "stateMutability": "view",
      "type": "function"
    },
    {
      "inputs": [
        {
          "internalType": "address",
          "name": "owner",
          "type": "address"
        },
        {
          "internalType": "address",
          "name": "operator",
          "type": "address"
        }
      ],
      "name": "isApprovedForAll",
      "outputs": [
        {
          "internalType": "bool",
          "name": "",
          "type": "bool"
        }
      ],
      "stateMutability": "view",
      "type": "function"
    },
    {
      "inputs": [],
      "name": "mintDate",
      "outputs": [
        {
          "internalType": "uint256",
          "name": "",
          "type": "uint256"
        }
      ],
      "stateMutability": "view",
      "type": "function"
    },
    {
      "inputs": [],
      "name": "name",
      "outputs": [
        {
          "internalType": "string",
          "name": "",
          "type": "string"
        }
      ],
      "stateMutability": "view",
      "type": "function"
    },
    {
      "inputs": [
        {
          "internalType": "uint256",
          "name": "tokenId",
          "type": "uint256"
        }
      ],
      "name": "ownerOf",
      "outputs": [
        {
          "internalType": "address",
          "name": "",
          "type": "address"
        }
      ],
      "stateMutability": "view",
      "type": "function"
    },
    {
      "inputs": [
        {
          "internalType": "bytes",
          "name": "",
          "type": "bytes"
        },
        {
          "internalType": "uint256",
          "name": "tokenId",
          "type": "uint256"
        }
      ],
      "name": "performUpkeep",
      "outputs": [],
      "stateMutability": "nonpayable",
      "type": "function"
    },
    {
      "inputs": [
        {
          "internalType": "uint256",
          "name": "tokenId",
          "type": "uint256"
        },
        {
          "internalType": "uint256",
          "name": "price",
          "type": "uint256"
        }
      ],
      "name": "resellToken",
      "outputs": [],
      "stateMutability": "payable",
      "type": "function"
    },
    {
      "inputs": [
        {
          "internalType": "address",
          "name": "from",
          "type": "address"
        },
        {
          "internalType": "address",
          "name": "to",
          "type": "address"
        },
        {
          "internalType": "uint256",
          "name": "tokenId",
          "type": "uint256"
        }
      ],
      "name": "safeTransferFrom",
      "outputs": [],
      "stateMutability": "nonpayable",
      "type": "function"
    },
    {
      "inputs": [
        {
          "internalType": "address",
          "name": "from",
          "type": "address"
        },
        {
          "internalType": "address",
          "name": "to",
          "type": "address"
        },
        {
          "internalType": "uint256",
          "name": "tokenId",
          "type": "uint256"
        },
        {
          "internalType": "bytes",
          "name": "data",
          "type": "bytes"
        }
      ],
      "name": "safeTransferFrom",
      "outputs": [],
      "stateMutability": "nonpayable",
      "type": "function"
    },
    {
      "inputs": [
        {
          "internalType": "address",
          "name": "operator",
          "type": "address"
        },
        {
          "internalType": "bool",
          "name": "approved",
          "type": "bool"
        }
      ],
      "name": "setApprovalForAll",
      "outputs": [],
      "stateMutability": "nonpayable",
      "type": "function"
    },
    {
      "inputs": [
        {
          "internalType": "bytes4",
          "name": "interfaceId",
          "type": "bytes4"
        }
      ],
      "name": "supportsInterface",
      "outputs": [
        {
          "internalType": "bool",
          "name": "",
          "type": "bool"
        }
      ],
      "stateMutability": "view",
      "type": "function"
    },
    {
      "inputs": [],
      "name": "symbol",
      "outputs": [
        {
          "internalType": "string",
          "name": "",
          "type": "string"
        }
      ],
      "stateMutability": "view",
      "type": "function"
    },
    {
      "inputs": [],
      "name": "timeTillExpire",
      "outputs": [
        {
          "internalType": "uint256",
          "name": "",
          "type": "uint256"
        }
      ],
      "stateMutability": "view",
      "type": "function"
    },
    {
      "inputs": [
        {
          "internalType": "uint256",
          "name": "tokenId",
          "type": "uint256"
        }
      ],
      "name": "tokenURI",
      "outputs": [
        {
          "internalType": "string",
          "name": "",
          "type": "string"
        }
      ],
      "stateMutability": "view",
      "type": "function"
    },
    {
      "inputs": [
        {
          "internalType": "address",
          "name": "from",
          "type": "address"
        },
        {
          "internalType": "address",
          "name": "to",
          "type": "address"
        },
        {
          "internalType": "uint256",
          "name": "tokenId",
          "type": "uint256"
        }
      ],
      "name": "transferFrom",
      "outputs": [],
      "stateMutability": "nonpayable",
      "type": "function"
    },
    {
      "inputs": [
        {
          "internalType": "uint256",
          "name": "_listingPrice",
          "type": "uint256"
        }
      ],
      "name": "updateListingPrice",
      "outputs": [],
      "stateMutability": "payable",
      "type": "function"
    },
    {
      "inputs": [],
      "name": "warranty",
      "outputs": [
        {
          "internalType": "uint256",
          "name": "",
          "type": "uint256"
        }
      ],
      "stateMutability": "view",
      "type": "function"
    }
  ],
  "bytecode": "0x608060405242600755426008556301e1853e60095560095460075462000026919062000168565b600a556000600d553480156200003b57600080fd5b50604080518082018252600d81526c4e4654732057617272616e747960981b60208083019182528351808501909452600884526757617272616e747960c01b9084015281519192916200009191600091620000c2565b508051620000a7906001906020840190620000c2565b5050600e80546001600160a01b0319163317905550620001ca565b828054620000d0906200018d565b90600052602060002090601f016020900481019282620000f457600085556200013f565b82601f106200010f57805160ff19168380011785556200013f565b828001600101855582156200013f579182015b828111156200013f57825182559160200191906001019062000122565b506200014d92915062000151565b5090565b5b808211156200014d576000815560010162000152565b600082198211156200018857634e487b7160e01b81526011600452602481fd5b500190565b600181811c90821680620001a257607f821691505b60208210811415620001c457634e487b7160e01b600052602260045260246000fd5b50919050565b6125fa80620001da6000396000f3fe6080604052600436106101b75760003560e01c80636e04ff0d116100ec578063b88d4fde1161008a578063be9af53611610064578063be9af53614610498578063c87b56dd146104ab578063e219fc75146104cb578063e985e9c5146104de57600080fd5b8063b88d4fde14610442578063b8a4836e14610462578063b8a67c3c1461048257600080fd5b806395d89b41116100c657806395d89b41146103e457806398fafb2e146103f9578063a22cb4651461040f578063ae677aa31461042f57600080fd5b80636e04ff0d1461037957806370a08231146103b157806372b3b620146103d157600080fd5b806323b872dd1161015957806345f8fa801161013357806345f8fa80146103195780634f99b7c51461032e57806354734eee146103445780636352211e1461035957600080fd5b806323b872dd146102c35780633affe776146102e357806342842e0e146102f957600080fd5b8063095ea7b311610195578063095ea7b31461024b5780630f08efe01461026d57806312e855851461028f578063202e3740146102ae57600080fd5b806301ffc9a7146101bc57806306fdde03146101f1578063081812fc14610213575b600080fd5b3480156101c857600080fd5b506101dc6101d7366004612100565b610527565b60405190151581526020015b60405180910390f35b3480156101fd57600080fd5b50610206610579565b6040516101e8919061239c565b34801561021f57600080fd5b5061023361022e366004612234565b61060b565b6040516001600160a01b0390911681526020016101e8565b34801561025757600080fd5b5061026b6102663660046120d7565b610632565b005b34801561027957600080fd5b5061028261074d565b6040516101e89190612305565b34801561029b57600080fd5b50600d545b6040519081526020016101e8565b3480156102ba57600080fd5b50610282610901565b3480156102cf57600080fd5b5061026b6102de366004611ffc565b610af3565b3480156102ef57600080fd5b506102a060095481565b34801561030557600080fd5b5061026b610314366004611ffc565b610b24565b34801561032557600080fd5b50610282610b3f565b34801561033a57600080fd5b506102a060075481565b34801561035057600080fd5b50600a546102a0565b34801561036557600080fd5b50610233610374366004612234565b610d31565b34801561038557600080fd5b506103a36103943660046121ab565b50600754600a54101590606090565b6040516101e8929190612381565b3480156103bd57600080fd5b506102a06103cc366004611fb0565b610d91565b6102a06103df3660046121de565b610e17565b3480156103f057600080fd5b50610206610e59565b34801561040557600080fd5b506102a060085481565b34801561041b57600080fd5b5061026b61042a36600461209d565b610e68565b61026b61043d366004612234565b610e77565b34801561044e57600080fd5b5061026b61045d366004612037565b610ecd565b34801561046e57600080fd5b5061026b61047d366004612138565b610f06565b34801561048e57600080fd5b506102a0600a5481565b61026b6104a6366004612234565b610fd8565b3480156104b757600080fd5b506102066104c6366004612234565b61113d565b61026b6104d936600461224c565b61124e565b3480156104ea57600080fd5b506101dc6104f9366004611fca565b6001600160a01b03918216600090815260056020908152604080832093909416825291909152205460ff1690565b60006001600160e01b031982166380ac58cd60e01b148061055857506001600160e01b03198216635b5e139f60e01b145b8061057357506301ffc9a760e01b6001600160e01b03198316145b92915050565b60606000805461058890612502565b80601f01602080910402602001604051908101604052809291908181526020018280546105b490612502565b80156106015780601f106105d657610100808354040283529160200191610601565b820191906000526020600020905b8154815290600101906020018083116105e457829003601f168201915b5050505050905090565b600061061682611346565b506000908152600460205260409020546001600160a01b031690565b600061063d82610d31565b9050806001600160a01b0316836001600160a01b031614156106b05760405162461bcd60e51b815260206004820152602160248201527f4552433732313a20617070726f76616c20746f2063757272656e74206f776e656044820152603960f91b60648201526084015b60405180910390fd5b336001600160a01b03821614806106cc57506106cc81336104f9565b61073e5760405162461bcd60e51b815260206004820152603e60248201527f4552433732313a20617070726f76652063616c6c6572206973206e6f7420746f60448201527f6b656e206f776e6572206e6f7220617070726f76656420666f7220616c6c000060648201526084016106a7565b61074883836113a8565b505050565b6060600061075a600b5490565b90506000610767600c5490565b600b5461077491906124bf565b90506000808267ffffffffffffffff8111156107a057634e487b7160e01b600052604160045260246000fd5b6040519080825280602002602001820160405280156107f957816020015b6040805160a0810182526000808252602080830182905292820181905260608201819052608082015282526000199092019101816107be5790505b50905060005b848110156108f85730600f6000610817846001612493565b81526020810191909152604001600020600201546001600160a01b031614156108e6576000610847826001612493565b6000818152600f6020908152604091829020825160a0810184528154815260018201546001600160a01b039081169382019390935260028201549092169282019290925260038201546060820152600482015460ff1615156080820152855192935090918590879081106108cb57634e487b7160e01b600052603260045260246000fd5b60209081029190910101526108e1600186612493565b945050505b806108f08161253d565b9150506107ff565b50949350505050565b6060600061090e600b5490565b905060008060005b838110156109715733600f600061092e846001612493565b81526020810191909152604001600020600201546001600160a01b0316141561095f5761095c600184612493565b92505b806109698161253d565b915050610916565b5060008267ffffffffffffffff81111561099b57634e487b7160e01b600052604160045260246000fd5b6040519080825280602002602001820160405280156109f457816020015b6040805160a0810182526000808252602080830182905292820181905260608201819052608082015282526000199092019101816109b95790505b50905060005b848110156108f85733600f6000610a12846001612493565b81526020810191909152604001600020600201546001600160a01b03161415610ae1576000610a42826001612493565b6000818152600f6020908152604091829020825160a0810184528154815260018201546001600160a01b039081169382019390935260028201549092169282019290925260038201546060820152600482015460ff161515608082015285519293509091859087908110610ac657634e487b7160e01b600052603260045260246000fd5b6020908102919091010152610adc600186612493565b945050505b80610aeb8161253d565b9150506109fa565b610afd3382611416565b610b195760405162461bcd60e51b81526004016106a790612445565b610748838383611494565b61074883838360405180602001604052806000815250610ecd565b60606000610b4c600b5490565b905060008060005b83811015610baf5733600f6000610b6c846001612493565b81526020810191909152604001600020600101546001600160a01b03161415610b9d57610b9a600184612493565b92505b80610ba78161253d565b915050610b54565b5060008267ffffffffffffffff811115610bd957634e487b7160e01b600052604160045260246000fd5b604051908082528060200260200182016040528015610c3257816020015b6040805160a081018252600080825260208083018290529282018190526060820181905260808201528252600019909201910181610bf75790505b50905060005b848110156108f85733600f6000610c50846001612493565b81526020810191909152604001600020600101546001600160a01b03161415610d1f576000610c80826001612493565b6000818152600f6020908152604091829020825160a0810184528154815260018201546001600160a01b039081169382019390935260028201549092169282019290925260038201546060820152600482015460ff161515608082015285519293509091859087908110610d0457634e487b7160e01b600052603260045260246000fd5b6020908102919091010152610d1a600186612493565b945050505b80610d298161253d565b915050610c38565b6000818152600260205260408120546001600160a01b0316806105735760405162461bcd60e51b8152602060048201526018602482015277115490cdcc8c4e881a5b9d985b1a59081d1bdad95b88125160421b60448201526064016106a7565b60006001600160a01b038216610dfb5760405162461bcd60e51b815260206004820152602960248201527f4552433732313a2061646472657373207a65726f206973206e6f7420612076616044820152683634b21037bbb732b960b91b60648201526084016106a7565b506001600160a01b031660009081526003602052604090205490565b6000610e27600b80546001019055565b6000610e32600b5490565b9050610e3e3382611630565b610e488185611772565b610e52818461180c565b9392505050565b60606001805461058890612502565b610e73338383611962565b5050565b600e546001600160a01b03163314610ec85760405162461bcd60e51b815260206004820152601460248201527313db9b1e4814d95b1b195c8818d85b88131a5cdd60621b60448201526064016106a7565b600d55565b610ed8335b83611416565b610ef45760405162461bcd60e51b81526004016106a790612445565b610f0084848484611a31565b50505050565b604080516020810190915260009052600754600a541015610f2633610ed2565b610f885760405162461bcd60e51b815260206004820152602d60248201527f4552433732313a2063616c6c6572206973206e6f7420746f6b656e206f776e6560448201526c1c881bdc88185c1c1c9bdd9959609a1b60648201526084016106a7565b600181151514610fcf5760405162461bcd60e51b81526020600482015260126024820152712ab835b2b2b8103737ba103732b2b232b21760711b60448201526064016106a7565b610f0082611a64565b6000818152600f6020526040902060038101546001909101546001600160a01b0316348214611071576040805162461bcd60e51b81526020600482015260248101919091527f506c65617365207375626d6974207468652061736b696e67207072696365206960448201527f6e206f7264657220746f20636f6d706c6574652074686520707572636861736560648201526084016106a7565b6000838152600f602052604090206002810180546001600160a01b0319908116331790915560048201805460ff19166001908117909155909101805490911690556110c0600c80546001019055565b6110cb303385611494565b600e54600d546040516001600160a01b039092169181156108fc0291906000818181858888f19350505050158015611107573d6000803e3d6000fd5b506040516001600160a01b038216903480156108fc02916000818181858888f19350505050158015610f00573d6000803e3d6000fd5b606061114882611346565b6000828152600660205260408120805461116190612502565b80601f016020809104026020016040519081016040528092919081815260200182805461118d90612502565b80156111da5780601f106111af576101008083540402835291602001916111da565b820191906000526020600020905b8154815290600101906020018083116111bd57829003601f168201915b5050505050905060006111f860408051602081019091526000815290565b905080516000141561120b575092915050565b81511561123d578082604051602001611225929190612299565b60405160208183030381529060405292505050919050565b61124684611aa4565b949350505050565b6000828152600f60205260409020600201546001600160a01b031633146112ca5760405162461bcd60e51b815260206004820152602a60248201527f4f6e6c79206974656d206f776e65722063616e20706572666f726d20746869736044820152691037b832b930ba34b7b760b11b60648201526084016106a7565b600d5434146112eb5760405162461bcd60e51b81526004016106a790612401565b6000828152600f6020526040902060048101805460ff19169055600381018290556001810180546001600160a01b03199081163317909155600290910180549091163017905561133b600c611b17565b610e73333084611494565b6000818152600260205260409020546001600160a01b03166113a55760405162461bcd60e51b8152602060048201526018602482015277115490cdcc8c4e881a5b9d985b1a59081d1bdad95b88125160421b60448201526064016106a7565b50565b600081815260046020526040902080546001600160a01b0319166001600160a01b03841690811790915581906113dd82610d31565b6001600160a01b03167f8c5be1e5ebec7d5bd14f71427d1e84f3dd0314c0f7b2291e5b200ac8c7c3b92560405160405180910390a45050565b60008061142283610d31565b9050806001600160a01b0316846001600160a01b0316148061146957506001600160a01b0380821660009081526005602090815260408083209388168352929052205460ff165b806112465750836001600160a01b03166114828461060b565b6001600160a01b031614949350505050565b826001600160a01b03166114a782610d31565b6001600160a01b03161461150b5760405162461bcd60e51b815260206004820152602560248201527f4552433732313a207472616e736665722066726f6d20696e636f72726563742060448201526437bbb732b960d91b60648201526084016106a7565b6001600160a01b03821661156d5760405162461bcd60e51b8152602060048201526024808201527f4552433732313a207472616e7366657220746f20746865207a65726f206164646044820152637265737360e01b60648201526084016106a7565b6115786000826113a8565b6001600160a01b03831660009081526003602052604081208054600192906115a19084906124bf565b90915550506001600160a01b03821660009081526003602052604081208054600192906115cf908490612493565b909155505060008181526002602052604080822080546001600160a01b0319166001600160a01b0386811691821790925591518493918716917fddf252ad1be2c89b69c2b068fc378daa952ba7f163c4a11628f55a4df523b3ef91a4505050565b6001600160a01b0382166116865760405162461bcd60e51b815260206004820181905260248201527f4552433732313a206d696e7420746f20746865207a65726f206164647265737360448201526064016106a7565b6000818152600260205260409020546001600160a01b0316156116eb5760405162461bcd60e51b815260206004820152601c60248201527f4552433732313a20746f6b656e20616c7265616479206d696e7465640000000060448201526064016106a7565b6001600160a01b0382166000908152600360205260408120805460019290611714908490612493565b909155505060008181526002602052604080822080546001600160a01b0319166001600160a01b03861690811790915590518392907fddf252ad1be2c89b69c2b068fc378daa952ba7f163c4a11628f55a4df523b3ef908290a45050565b6000828152600260205260409020546001600160a01b03166117ed5760405162461bcd60e51b815260206004820152602e60248201527f45524337323155524953746f726167653a2055524920736574206f66206e6f6e60448201526d32bc34b9ba32b73a103a37b5b2b760911b60648201526084016106a7565b6000828152600660209081526040909120825161074892840190611e30565b6000811161185c5760405162461bcd60e51b815260206004820152601c60248201527f5072696365206d757374206265206174206c656173742031207765690000000060448201526064016106a7565b600d54341461187d5760405162461bcd60e51b81526004016106a790612401565b6040805160a08101825283815233602080830182815230848601818152606086018881526000608088018181528b8252600f909652979097209551865591516001860180546001600160a01b03199081166001600160a01b0393841617909155925160028701805490941691161790915593516003840155516004909201805460ff1916921515929092179091556119159184611494565b604080513381523060208201529081018290526000606082015282907fb640004f1d14576d0c209e240cad0410e0d8c0c33a09375861fbadae2588a98d9060800160405180910390a25050565b816001600160a01b0316836001600160a01b031614156119c45760405162461bcd60e51b815260206004820152601960248201527f4552433732313a20617070726f766520746f2063616c6c65720000000000000060448201526064016106a7565b6001600160a01b03838116600081815260056020908152604080832094871680845294825291829020805460ff191686151590811790915591519182527f17307eab39ab6107e8899845ad3d59bd9653f200f220920489ca2b5937696c31910160405180910390a3505050565b611a3c848484611494565b611a4884848484611b6e565b610f005760405162461bcd60e51b81526004016106a7906123af565b611a6d81611c7b565b60008181526006602052604090208054611a8690612502565b1590506113a55760008181526006602052604081206113a591611eb4565b6060611aaf82611346565b6000611ac660408051602081019091526000815290565b90506000815111611ae65760405180602001604052806000815250610e52565b80611af084611d16565b604051602001611b01929190612299565b6040516020818303038152906040529392505050565b805480611b665760405162461bcd60e51b815260206004820152601b60248201527f436f756e7465723a2064656372656d656e74206f766572666c6f77000000000060448201526064016106a7565b600019019055565b60006001600160a01b0384163b15611c7057604051630a85bd0160e11b81526001600160a01b0385169063150b7a0290611bb29033908990889088906004016122c8565b602060405180830381600087803b158015611bcc57600080fd5b505af1925050508015611bfc575060408051601f3d908101601f19168201909252611bf99181019061211c565b60015b611c56573d808015611c2a576040519150601f19603f3d011682016040523d82523d6000602084013e611c2f565b606091505b508051611c4e5760405162461bcd60e51b81526004016106a7906123af565b805181602001fd5b6001600160e01b031916630a85bd0160e11b149050611246565b506001949350505050565b6000611c8682610d31565b9050611c936000836113a8565b6001600160a01b0381166000908152600360205260408120805460019290611cbc9084906124bf565b909155505060008281526002602052604080822080546001600160a01b0319169055518391906001600160a01b038416907fddf252ad1be2c89b69c2b068fc378daa952ba7f163c4a11628f55a4df523b3ef908390a45050565b606081611d3a5750506040805180820190915260018152600360fc1b602082015290565b8160005b8115611d645780611d4e8161253d565b9150611d5d9050600a836124ab565b9150611d3e565b60008167ffffffffffffffff811115611d8d57634e487b7160e01b600052604160045260246000fd5b6040519080825280601f01601f191660200182016040528015611db7576020820181803683370190505b5090505b841561124657611dcc6001836124bf565b9150611dd9600a86612558565b611de4906030612493565b60f81b818381518110611e0757634e487b7160e01b600052603260045260246000fd5b60200101906001600160f81b031916908160001a905350611e29600a866124ab565b9450611dbb565b828054611e3c90612502565b90600052602060002090601f016020900481019282611e5e5760008555611ea4565b82601f10611e7757805160ff1916838001178555611ea4565b82800160010185558215611ea4579182015b82811115611ea4578251825591602001919060010190611e89565b50611eb0929150611eea565b5090565b508054611ec090612502565b6000825580601f10611ed0575050565b601f0160209004906000526020600020908101906113a591905b5b80821115611eb05760008155600101611eeb565b600067ffffffffffffffff80841115611f1a57611f1a612598565b604051601f8501601f19908116603f01168101908282118183101715611f4257611f42612598565b81604052809350858152868686011115611f5b57600080fd5b858560208301376000602087830101525050509392505050565b80356001600160a01b0381168114611f8c57600080fd5b919050565b600082601f830112611fa1578081fd5b610e5283833560208501611eff565b600060208284031215611fc1578081fd5b610e5282611f75565b60008060408385031215611fdc578081fd5b611fe583611f75565b9150611ff360208401611f75565b90509250929050565b600080600060608486031215612010578081fd5b61201984611f75565b925061202760208501611f75565b9150604084013590509250925092565b6000806000806080858703121561204c578081fd5b61205585611f75565b935061206360208601611f75565b925060408501359150606085013567ffffffffffffffff811115612085578182fd5b61209187828801611f91565b91505092959194509250565b600080604083850312156120af578182fd5b6120b883611f75565b9150602083013580151581146120cc578182fd5b809150509250929050565b600080604083850312156120e9578182fd5b6120f283611f75565b946020939093013593505050565b600060208284031215612111578081fd5b8135610e52816125ae565b60006020828403121561212d578081fd5b8151610e52816125ae565b60008060006040848603121561214c578283fd5b833567ffffffffffffffff80821115612163578485fd5b818601915086601f830112612176578485fd5b813581811115612184578586fd5b876020828501011115612195578586fd5b6020928301989097509590910135949350505050565b6000602082840312156121bc578081fd5b813567ffffffffffffffff8111156121d2578182fd5b61124684828501611f91565b600080604083850312156121f0578182fd5b823567ffffffffffffffff811115612206578283fd5b8301601f81018513612216578283fd5b61222585823560208401611eff565b95602094909401359450505050565b600060208284031215612245578081fd5b5035919050565b6000806040838503121561225e578182fd5b50508035926020909101359150565b600081518084526122858160208601602086016124d6565b601f01601f19169290920160200192915050565b600083516122ab8184602088016124d6565b8351908301906122bf8183602088016124d6565b01949350505050565b6001600160a01b03858116825284166020820152604081018390526080606082018190526000906122fb9083018461226d565b9695505050505050565b602080825282518282018190526000919060409081850190868401855b8281101561237457815180518552868101516001600160a01b03908116888701528682015116868601526060808201519086015260809081015115159085015260a09093019290850190600101612322565b5091979650505050505050565b8215158152604060208201526000611246604083018461226d565b602081526000610e52602083018461226d565b60208082526032908201527f4552433732313a207472616e7366657220746f206e6f6e20455243373231526560408201527131b2b4bb32b91034b6b83632b6b2b73a32b960711b606082015260800190565b60208082526024908201527f5072696365206d75737420626520657175616c20746f206c697374696e6720706040820152637269636560e01b606082015260800190565b6020808252602e908201527f4552433732313a2063616c6c6572206973206e6f7420746f6b656e206f776e6560408201526d1c881b9bdc88185c1c1c9bdd995960921b606082015260800190565b600082198211156124a6576124a661256c565b500190565b6000826124ba576124ba612582565b500490565b6000828210156124d1576124d161256c565b500390565b60005b838110156124f15781810151838201526020016124d9565b83811115610f005750506000910152565b600181811c9082168061251657607f821691505b6020821081141561253757634e487b7160e01b600052602260045260246000fd5b50919050565b60006000198214156125515761255161256c565b5060010190565b60008261256757612567612582565b500690565b634e487b7160e01b600052601160045260246000fd5b634e487b7160e01b600052601260045260246000fd5b634e487b7160e01b600052604160045260246000fd5b6001600160e01b0319811681146113a557600080fdfea264697066735822122013262a1d74c0bb7c733a5169a9e5240d87e21e8c8111fca7838d5a6f1cadbc8064736f6c63430008040033",
  "linkReferences": {},
  "deployedLinkReferences": {}
}